:020000021000EC
:1000000000000420659101009D9101001975010017
:10001000A1910100257501002B7501000000000071
:10002000000000000000000000000000AD230100FF
:10003000A99101000000000047240100572401009D
:10004000BDC9010029480100AF910100AF91010035
:10005000AF910100AF910100AF910100AF9101009C
:10006000AF910100AF910100AF910100AF9101008C
:10007000AF91010051CB0100AF9101004148010057
:10008000AF910100AF910100AF910100AF9101006C
:10009000AF910100AF910100AF910100AF9101005C
:1000A000AF910100AF910100AF910100AF9101004C
:1000B000AF910100AF9101000000000000000000BE
:1000C000AF910100AF910100AF910100AF9101002C
:1000D000AF910100AF910100AF910100AF9101001C
:1000E000AF910100AF910100AF910100000000004D
:1000F00000000000AF91010000000000AF9101007E
:1001000010B5054C237833B9044B13B10448AFF351
:1001100000800123237010BDE80F002000000000C4
:10012000B442020008B5034B1BB103490348AFF3C7
:10013000008008BD00000000EC0F0020B442020067
:10014000154B002B08BF134B9D46A3F5803A0021A9
:100150008B460F461348144A121A0EF051FE0F4BED
:10016000002B00D098470E4B002B00D09847002062
:10017000002104000D000D48002802D00C4807F0B3
:1001800067FF0EF049F92000290004F08FF907F00D
:100190005CFF00BF00000800000004200000000019
:1001A00009440100E80F002038B000205180010010
:1001B0000000000008B54FF4E131124800F0D6FB12
:1001C00040F213424FF4E1310F4800F085F901216C
:1001D000162002F07FF80121172002F07BF80121A0
:1001E000192002F077F80121162002F0B7F801215A
:1001F000172002F0B3F800211920BDE8084002F0F2
:10020000ADB800BF641100202C100020F0B53148BB
:1002100087B000F0C3FA002841DD0D222D492E4F92
:100220002C4E684601F0E4FE694603A801F064FF25
:100230000D2103A801F096FF0146684601F04DFF2D
:1002400003A801F0EDFE0024029B9C4216D2214639
:10025000684601F09AFF01460546384600F0E6F987
:100260000A222946304601F0ABFE0021162002F09A
:1002700075F8642001F0D4FF0134E5E7174915480B
:1002800001F06AFE1649134801F04EFE6946114816
:1002900001F058FE684601F0C3FE07B0F0BD012131
:1002A000162002F05BF80C4800F078FA00280BDD0D
:1002B0000021172002F052F8074800F0E1FAC1B21D
:1002C000044801F035FEE8E70121172002F046F866
:1002D000E3E700BF641100202C1000205836020014
:1002E000D023020070470B6803604B6843608B6843
:1002F000836070470022C26070470C30704708B5B9
:10030000FFF7FBFF0023036008BDC3680BB19B68C8
:100310001847704708B5282200210EF071FD08BD6E
:1003200010B500210446FFF7E5FF204610BD10B5CB
:100330000446FFF7EAFF204610BD0000044BC360EF
:1003400003460A6843F8042B002242605A60704753
:10035000E023020013B50446019121B9FFF7CFFF56
:10036000204602B010BD01A9FFF7E8FFF8E70368D7
:10037000184708B5FFF7FBFF08BD00000148FFF76D
:10038000C9BF00BF0410002030B5A1F11004002542
:1003900000F00F02D3B2092ACCBF373330338B734E
:1003A000CD7302398C424FEA1010F1D130BD2220BA
:1003B0007047000030B5012185B0192001F08AFF97
:1003C0000121192001F0CAFF4FF080430022C3F839
:1003D0005C2503F588334FF48032C3F848230121AC
:1003E000C3F80823212001F075FF0121202001F02E
:1003F00071FF0121212001F0B1FF0A2001F010FF5F
:100400000121202001F0AAFF212001F0DDFE1F289C
:1004100086BF00F01F00154B4FF0A04300F5E070C1
:1004200040F2033243F82020114B01221A60114A96
:100430001368002BFCD0104B0024C3F80045C3F810
:1004400000450E4B0FCB6D4685E80F002346204636
:100450004FF0FF3155F823200133042BC2F800057B
:10046000C2F86015F6D105B030BD00BF00030050E2
:10047000042000404421004000200040EC23020002
:1004800038B54FF0805504462146D5F8A800FFF74F
:100490007BFFD5F8A40004F11001FFF775FF2020C1
:1004A00038BD000072B64FF08043B022C3F81C255F
:1004B000BFF34F8F0549064BCA6802F4E06213434D
:1004C000CB60BFF34F8F00BFFDE700BF00ED00E042
:1004D0000400FA050020704770B590F834310546E5
:1004E0001446F3B90368DB69984704F47063B3F505
:1004F000407F04F0F0030CBF0721082104F00F0235
:10050000302B0CBF02230123012A08D0901E424247
:100510004241A869BDE87040006804F0D2BA0222E6
:10052000F7E770BD10B590F8343104462BB9A369D4
:10053000186804F01DFB0028F9D010BD38B590F8FC
:1005400034510446A5B983695BB1186848B10368A2
:10055000DB689847A3691D600421A06907F094FF38
:10056000A5610023C4F82431C4F82831C4F82C3123
:1005700038BD13B590F8343104466BBBA3691868D5
:1005800004F0B6FA40B307F029FAA36918680368C3
:1005900001225B690DF107019847D4F82C31B3F5BE
:1005A000807F16D0D4F82C31B3F5807F11D0D4F8E9
:1005B00024319DF80720234483F82420D4F82431E3
:1005C0000133DBB2C4F82431D4F82C310133C4F840
:1005D0002C3107F019FAD1E702B010BD08B590F838
:1005E00034313BB1012001F01BFE0648BDE8084054
:1005F00001F0E3B982691AB11368003318BF01230F
:10060000184608BD3018002070B504460D4601F0AC
:10061000D4F930B12368294620461B6CBDE87040F0
:10062000184770BDA0F5A070EEE7000013B590F874
:1006300034318DF8071004462BB1C9B20B48FFF7CF
:10064000E3FF02B010BDA369186804F091FA002816
:10065000F9D0A3691868036801221B690DF107012D
:100660009847013018BF0120EBE700BF3018002089
:100670002DE9F04107468846164601F09EF970B113
:100680000024A6420CD9351B402D28BF402508EB7D
:1006900004012A46384600F0F1FE2C44F1E70446F6
:1006A0002046BDE8F081A0F5A070E1E770B590F8B4
:1006B000343105460E4614462BB11048FFF7D8FFDB
:1006C0000446204670BDAB69186804F051FA002852
:1006D000F9D0AB691868D0F8083101211B6B00F51F
:1006E00084709847AB691868036822461B693146D5
:1006F0009847013008BF0024E3E700BF301800200E
:1007000030B50446C3B001F045F9D4F85832C3F50A
:10071000807398420546C4BFD4F85852C5F5807519
:100720002A4601AB02A9204600F092FF019902ABD4
:100730006D1A00221D44D4F85832B3F5807F19D0C9
:100740008A4217D0D4F85832B3F5807F10D0D4F84D
:100750005032A85C234483F85001D4F8503201335E
:10076000DBB2C4F85032D4F858320133C4F85832EE
:100770000132E0E743B030BD38B5044600F07EFBFF
:100780002046FFF7BDFFD4F85852204600F07EFB0C
:10079000284638BDA0F5A070EEE7000010B590F82F
:1007A000343104462BB10648FFF7E6FF04462046E5
:1007B00010BD07F013F9D4F82C4107F025F9F6E73E
:1007C0003018002038B5044600F058FB2046FFF7EB
:1007D00097FFD4F858324BB1D4F85432234493F8ED
:1007E0005051204600F052FB284638BD4FF0FF35EF
:1007F000F7E7A0F5A070E5E710B590F834310446AE
:100800002BB10B48FFF7DEFF0446204610BD07F072
:10081000E5F8D4F82C313BB1D4F82801044494F81D
:10082000244007F0F1F8F0E74FF0FF34F9E700BF9C
:100830003018002038B5044600F020FB2046FFF7B2
:100840005FFFD4F85832A3B1D4F85432234493F85C
:100850005051D4F854320133DBB2C4F85432D4F8D6
:100860005832013BC4F85832204600F00FFB2846AE
:1008700038BD4FF0FF35F7E7A0F5A070DAE70000CC
:1008800010B590F8343104462BB11148FFF7D2FF70
:100890000446204610BD07F0A1F8D4F82C319BB1D6
:1008A000D4F82831234493F82400D4F828310133B4
:1008B000DBB2C4F82831D4F82C31013BC4F82C3118
:1008C000044607F0A1F8E4E74FF0FF34F9E700BF72
:1008D0003018002008B54FF4807200210EF090FA15
:1008E0000022C0F80021C0F80421C0F8082108BD8A
:1008F00010B4D0E9003409686210E40701EB02008B
:1009000048BF8A585DF8044B48BFD358184708B50C
:1009100001460430FFF7ECFF08BD0000034AC26047
:10092000034607C983E80700704700BFFC230200A5
:1009300010B586B004460391684606A980E80C000D
:1009400001E90C00204603A9FFF7E8FF204606B0A6
:1009500010BD37B56C4684E80C0094E80C000546E1
:10096000FFF7E6FF284603B030BD000070B590F8F1
:10097000343186B004460D46002B37D1866926B93E
:10098000042007F06BFDA0610660A369186878BBBE
:100990004FF4867007F062FD2B4694F9212094F9FC
:1009A0002010064604F0F0FBA3691E6094F9222093
:1009B000531C06D0A06994F923300068032104F089
:1009C000F3FBA3691D688DB10B4B009300260196C4
:1009D0006B460CCB214602A8FFF7BBFF28463246E8
:1009E00002A904F049F902A8FFF7A1FC06B070BD06
:1009F000294604F052F8D9E77305010008B5FFF75E
:100A000086FF08BD08B5FFF7F9FF08BD2DE9F047DF
:100A1000194C1A4F276000254FF47A78C4E9015821
:100A2000202604F12400C4E90565E5614FF00109C1
:100A3000FFF750FF284684F8349101F0C5FB824649
:100A4000484601F0C1FB0E4CFF2384F82100C4E9A5
:100A5000015804F124002760C4E90565E56184F8C4
:100A600020A084F8223084F82330FFF733FF84F885
:100A70003451BDE8F08700BF64110020102402004B
:100A80002C100020002070477047704710B5D0F838
:100A90008C452CB123682046DB6A9847A468F8E7A8
:100AA00010BD38B5D0F88C450D4634B123682046CA
:100AB000DB6829469847A468F7E738BD00487047C7
:100AC000D024020010B5054B0360044605F0BDFDBF
:100AD000204605F0CBFE204610BD00BF502402008A
:100AE00010B50446FFF7EEFF20464FF4B26107F061
:100AF000CBFC204610BDF7B5D0F88C4505460E4618
:100B00000023A4B1236831461F690DF1030201AB34
:100B10002046B8479DF803100429034605D0019AE2
:100B2000284605F0A1F803B0F0BDA468E9E7019AF2
:100B30009DF80310F4E770B505460E4622B100217A
:100B4000BDE8704004F09CBED0F88C455CB12368D1
:100B500000225B6931462046984710B101212846A2
:100B6000EEE7A468F2E72146F9E770B5D0F88C45C6
:100B70000E46054600213CB12368314620469B695C
:100B80009847A4680146F6E72846BDE8704004F09F
:100B90006BBFF8B5D0F88C4505460E4617463CB1FC
:100BA00023682046DB693A4631469847A468F6E751
:100BB00028460121BDE8F84004F0B4BF70B500211B
:100BC00086B0044605F09BF90023ADF80630238972
:100BD0008DF810301B0AA188E2888DF811304FF48F
:100BE000897540F20123ADF80450ADF812300225AA
:100BF00040F20313EF268DF807508DF809508DF859
:100C00000C100125090A8DF80E20ADF81430120AD7
:100C100004F10A038DF808608DF80A508DF80B0076
:100C20008DF80D108DF80F2001AD05AE1C462A463B
:100C300003CAB24218605960154603F10803F6D1A1
:100C400012881A80204606B070BDF8B5002406460A
:100C50000D46274630460EF0B3FCA04207D9335D5F
:100C600005F8143005EB440301345F70F2E74000EF
:100C700000F0FE00F8BD38B5D0F88C55044635B10B
:100C80002B6828465B6A984710B9AD68F7E7284695
:100C900040F20233A4F8483504F24A51FFF7D5FF79
:100CA00094F84835184484F8480504F5A96038BD1F
:100CB00040F2023310B500F20A510446A0F808359C
:100CC0000548FFF7C2FF94F80835184484F8080572
:100CD00004F5A16010BD00BF3C24020040F20233C5
:100CE00010B50446A0F8C83400F2CA40FFF7C8FBAC
:100CF00094F8C834184484F8C80404F5996010BD09
:100D00002DE9FF4100238DF80A3090F888351B4A01
:100D10008DF80830012301928DF809303222C0236A
:100D20008DF80B308DF80C2001AB044600F54E78A1
:100D300003CBC4F83803C8F8041088F80820D4F8A6
:100D40008C6509258EB1336800219B683046984731
:100D5000478805F54E73093F00F109013A46E0184E
:100D60000DF050FF3D44B668ECE784F83A53404636
:100D70002D1284F83B5304B0BDE8F0810902FFFF57
:100D800073B504460D46164608F09CF84FF4807380
:100D90000093014633462A46204605F023FD024BC8
:100DA0002360204602B070BD5024020010B5D0F878
:100DB0008C350446A3B9C0F88C1594F888350B71AE
:100DC00094F888354A79134484F888350B680846C6
:100DD0009B6A9847238918442081012010BD13463F
:100DE0009A68002AFBD19960E7E71FB5044605F031
:100DF00081F80146684604F09FFA4021684604F0F5
:100E00000DFBD4F88C4534B1236820461B6A694633
:100E10009847A468F7E7684604F095FA04B010BD57
:100E200010B50446FFF7E1FF2046BDE8104005F08D
:100E300048B8000010B50D4C2378BFF35B8FDB077B
:100E400012D4204607F012F970B148F25A0242F269
:100E500041310748FFF794FF204607F029F9054A7A
:100E60000549034807F0EFF8014810BD9C12002027
:100E7000A012002000020020C50A010010B5FFF7F3
:100E8000D9FF0368BDE810405B6F184710B5FFF746
:100E9000D1FF0368BDE810409B6F184710B5FFF7FE
:100EA000C9FF0368BDE81040DB6F184704F0C8BBFA
:100EB00004F0DCBB04F0B4BB704770477047436A72
:100EC00093F878007047D0F82401704701207047EC
:100ED00000487047382602002DE9F04F044697B0CD
:100EE0000F464B22002103A80DF08AFFD4F82431CD
:100EF000267994F80EA094F80C90002B06F10105C9
:100F0000637B019314BF05200020EDB2002F40F059
:100F1000978040F20923ADF80C304FF48173ADF89F
:100F2000103080238DF8133032238DF814300823CD
:100F30008DF815300B2301218DF816308DF8250022
:100F400040F2022342F205404FF0240C4FF0090E0C
:100F500004274B22ADF818308DF8211002238DF8AC
:100F60002410ADF826004FF0100805208DF82A1047
:100F70008DF82D108DF82F104FF0030B06218DF8F2
:100F80000E208DF817608DF81A308DF81DE08DF861
:100F90001F608DF822308DF823308DF82B008DF8EE
:100FA0002CC08DF831C08DF832308DF833108DF8AB
:100FB00034008DF835C08DF81E708DF829808DF8BD
:100FC0002EB08DF830708DF8361007218DF839105D
:100FD0008DF8491044F20201ADF84C1040F207516F
:100FE000ADF850101D349DF804108DF837608DF861
:100FF00038508DF83A008DF842508DF84A008DF83F
:1010000052108DF8533044F20306402340F6022577
:1010100003A920468DF83BA0ADF83C608DF83F80D9
:101020008DF840E08DF84170ADF844508DF84B904C
:101030008DF854300DF0E6FD204617B0BDE8F08F76
:101040000020FAE738B505460A4B45F8D03B044680
:10105000FFF7F0FE05F0F9FA284604F079FA04F1FA
:101060007C0004F075FA04F1700004F071FA204677
:1010700038BD00BFF825020010B50446FFF7E2FFB7
:1010800020464FF4947107F0FFF9204610BDFFF79A
:1010900005BF000010B5034B0360044604F014F9CB
:1010A000204610BD1825020010B50446FFF7F2FFD8
:1010B0002046282107F0E8F9204610BD10B5034B63
:1010C0000360044604F000F9204610BDE824020045
:1010D00010B50446FFF7F2FF2046342107F0D4F99B
:1010E000204610BD10B5034B0360044604F0ECF835
:1010F000204610BD0025020010B50446FFF7F2FFA0
:101100002046382107F0C0F9204610BD38B51C4BE9
:101110000D461968C0F80F1099889B7943750446ED
:10112000A0F8131040220221284604F06DF9402255
:1011300020730221284604F06CF9402260730321D9
:10114000284604F061F9A073284604F0FDF820B9A0
:10115000AF220C490C4806F091FB002304F18502F4
:10116000C4E9322304F1D90284F8783084F8843059
:1011700084F8D830C4F81C21C4F8203138BD00BF31
:1011800034250200D3250200DE2502002DE9F341BB
:1011900004460E461546FFF781FEF28823799A42EF
:1011A00037D1002D35D17778012F2ED1F378202B30
:1011B00027D13289072A24D104F10F0804F116053A
:1011C000294640460DF0ECFCD0B1D4F81630C4F8F6
:1011D0000F30207CE17B638BA4F8133001EB0021FE
:1011E000607CE57C237F009501EB00412568A07CB5
:1011F000637501EB0061237D627D6D6B2046A8471E
:101200003D46F378212B08BF0125284602B0BDE8F2
:10121000F0810025F9E710B50446FFF73FFEFFF720
:1012200009FE217B05F0AEF804F18503C4F8C8304F
:101230000023C4F8CC3084F8843004F17C0004F03E
:101240003CF994F884302BB923682046DB6BBDE869
:101250001040184710BD000070B50446FFF71EFE91
:10126000D4F820512DB140F2DD120F490F4806F09D
:1012700005FB04F1D903C4F81C31FFF7DBFD617BEA
:1012800004F0DEFF84F8D850C4F8200104F1D00047
:1012900004F013F994F8D8302BB9236820469B6BDF
:1012A000BDE87040184770BDD325020040250200FC
:1012B00038B502234371002383600C4B044640F889
:1012C000703B154604F0ECF804F17C0004F0E8F8FB
:1012D00004F1D00004F0E4F8C4F82451FFF7AAFDAB
:1012E0002146FFF763FD204638BD00BFF825020008
:1012F00070B504460D46FFF7D1FD84F87850002DF7
:101300003ED194F8843033B1FFF794FD217B04F093
:1013100011FE84F8845004F1850304F17C06002555
:101320003046C4F8C830C4F8CC5004F0C6F8304693
:1013300004F0BCF828B9154915484FF4A27206F01C
:101340009DFA94F8D83033B1FFF774FD217B04F097
:10135000F1FD84F8D85004F1D903C4F81C3104F12C
:10136000D00500232846C4F8203104F0A6F828460A
:1013700004F09CF820B94FF4A77204490548DEE751
:1013800004F17000BDE8704004F097B8D325020066
:101390004E2502005F25020010B50446FFF77EFDD2
:1013A00020460021BDE81040FFF7A2BF38B50D462A
:1013B0000446FFF773FD042D05D020460021BDE84B
:1013C0003840FFF795BF38BDF8B5164604460D46C0
:1013D0001F46FFF763FD04233370EA8823799A429E
:1013E00025D16978012922D1EA78212A08D0222A38
:1013F0000BD0202A4FF000001BD13070163401E0D2
:1014000031700F343C600720F8BDAB8813F0010346
:1014100008BF19462046FFF76BFFAB8803F00103B6
:10142000E366AB8803F00203A36602233370002057
:10143000EAE703233370E7E710B58AB00446FFF705
:101440001DFD684603F030FF0A4B0093694604F126
:101450007000099404F049F82046FFF717FD064B89
:1014600000211A68684603F0E5FE6846FFF712FEA1
:101470000AB010BD182502003C25020070B58EB0E0
:10148000154604460E46FFF7F9FC01A803F00CFFD1
:101490000E4B0C9501A9002504F17C000193CDE9C8
:1014A0000A468DF8345004F020F82046FFF7EEFC91
:1014B000074B29461A6801A803F0BCFE01A89DF855
:1014C0003440FFF7FBFD20460EB070BDE82402005B
:1014D0003C25020010B50446FFF7E0FC94F8843088
:1014E0007BB9D4F8CC3063B1FFF7A4FCD4F8CC308E
:1014F000217B04F1850204F0E3FE10B1012384F89E
:10150000843010BD2DE9F8431E46044689469046B6
:101510009DF82070FFF7B2FC0023336094F8783018
:10152000E3B194F88430CBB9D4F8CC50C5F1400580
:10153000454528BF4546B8F1000F05D02A46494623
:10154000D4F8C8000DF05EFBD4F8CC302B44C4F8BE
:10155000CC30356017B12046FFF7BCFF2046BDE810
:10156000F843FFF793BCF0B50446406A90F8785012
:1015700085B001262DB984F830503546284605B08F
:10158000F0BD04AB002743F8047DD4E90A120096AD
:10159000FFF7B8FF0399E36AA26A5B1A0A44E362A1
:1015A000A26213B984F83060E8E7606AFFF792FF3F
:1015B0003D46E3E72DE9F0431C4691B090460646D0
:1015C0008946FFF75BFC002C08BF01AC4FF000051B
:1015D000256002A80CBF0127002703F065FE104B11
:1015E000029302A906F1D000CDE90D84CDE90B6983
:1015F0008DF83C708DF83D5003F077FF3046FFF7D3
:1016000045FC084B29461A6802A803F013FE02A8FD
:101610009DF83D40FFF766FD204611B0BDE8F08320
:10162000002502003C25020010B5D0F82031044608
:101630006BB990F8D83053B9FFF7FCFB402304F1A5
:10164000D902617B04F09EFD012384F8D83010BDDF
:1016500070B51E4604460023336094F8783008467F
:10166000EBB194F8D830D3B9D4F82051D4F81C1188
:10167000954228BF15462A460DF0C4FA3560D4F8C5
:101680001C31D4F820212B44551BC4F81C31C4F85C
:10169000205125B92046BDE87040FFF7C5BF70BD99
:1016A00037B50446406A90F878502DB984F8355023
:1016B0000125284603B030BD02AB002243F8042DBB
:1016C000D4E90A12FFF7C4FF0199A26A0A44A26290
:1016D000226B13680B441360E36A01995B1A94F858
:1016E0003410E36209B9126802B91BB9012384F806
:1016F0003530DEE7606AFFF797FF0025D9E710B5C0
:101700000446FEF70DFE204610BD10B4D0E90034AB
:1017100009686210E40701EB020048BF8A585DF8CF
:10172000044B48BFD358184708B501460430FFF7AB
:10173000ECFF08BD034AC260034607C983E80700FF
:10174000704700BF2825020010B586B004460391FB
:10175000684606A980E80C0001E90C00204603A9B0
:10176000FFF7E8FF204606B010BD37B56C4684E8A9
:101770000C0094E80C000546FFF7E6FF284603B08E
:1017800030BD00002DE9F0418AB00546FFF786FB29
:10179000FFF750FB06ACAF7B064600212046FFF763
:1017A000AEFF3946032340220094304604F0B0FFD8
:1017B0002046FEF7BCFDFFF73DFB00261D4B95F8CC
:1017C0000C800293039602AB07460CCB29462046B9
:1017D000FFF7CBFF4146022340220094384604F035
:1017E00097FF2046FEF7A3FDFFF724FB124B95F869
:1017F0000D80CDE9043604AB07460CCB29462046C4
:10180000FFF7B3FF4146022340220094384604F01C
:101810007FFF2046FEF78BFDFFF70CFB4023D5F83A
:101820001C21697B04F0AEFC012085F8D8000AB0C9
:10183000BDE8F081171201005912010008B5FFF749
:1018400073FF08BD08B5FFF7F9FF08BD6FF015007D
:10185000704700290CBF6FF018000020704701206E
:1018600070476FF0150070476FF01500704711203A
:10187000704770477047704703689B6C1847A0F526
:10188000A070F9E7704770477047704710B504467D
:10189000012000F0C5FC94F8780010BDA0F5A07000
:1018A000F4E7000038B54FF0FF320123FF210B4869
:1018B0000B4D06F061FF00F0A1FC044695F878306E
:1018C0001BB1012000F0ACFCF8E700F097FC001B16
:1018D000C728F6D9BDE83840FEF7E4BDE81A002075
:1018E0003018002007B502AB012243F8041D194649
:1018F000FFF7C4FD18B1019803B05DF804FB4FF089
:10190000FF30F9E7A0F59470FFF7ECBF07B502A927
:10191000002301F8013D0122FFF74CFE20B19DF8A4
:10192000070003B05DF804FB4FF0FF30F9E7A0F5C6
:101930009470FFF7EBBF2DE9F8430446884617463D
:101940001E46089DFFF7AAFAD4F87092B9F1000F6D
:1019500004D02B46324639464046C847C4F8608218
:10196000C4F86472C4F86862C4F86C52BDE8F883C5
:10197000B0F5966F03D10121014806F0DFBE704734
:10198000E81A002000687047CB68C3600BB15B6841
:101990001847704738B50546FFF770FA95F8D83004
:1019A0004BB9D5F82041402C28BF40242846FFF7EA
:1019B0006DFA204638BD0024F8E790F878007047AB
:1019C000F7B504461F4615460E4607F07BFABDF8EC
:1019D00024300193BDF8203000932A463B4601464F
:1019E0002046FFF765FC002104F5947005F0F8FB34
:1019F0004FF47A73C4F84831194B236003F178022D
:101A00000025C4F8282103F1D802E833C4F8445172
:101A1000C4F82C212946C4F840314FF4807204F5F3
:101A2000A8700DF0EDF904F52D77C4F85052C4F804
:101A30005452C4F8585204F51D7528461035FEF767
:101A40006FFCBD42F9D10023C4F8B432C4F870323F
:101A500016B12046FFF7F0FC204603B0F0BD00BFF2
:101A600000270200114B03F1780270B50360C0F843
:101A7000282103F1D802E8330446C0F82C21C0F82D
:101A8000403100F51D7600F52D75AE4204D0103DB5
:101A90002846FEF74CFCF8E704F5947005F0CAFB05
:101AA0002046FFF7CFFA204670BD00BF0027020096
:101AB000A0F59470FFF7D6BFA0F59670FFF7D2BFE0
:101AC00010B50446FFF7CEFF20464FF42E7106F006
:101AD000DBFC204610BDA0F59670FFF7F1BFA0F526
:101AE0009470FFF7EDBF884238B5044606D00D4626
:101AF000FEF70BFC29462046FFF746FF204638BD7F
:101B000008B5FEF7FAFB0068003018BF012008BDD9
:101B100010B50446FFF7F4FF28B940F20222064947
:101B2000064805F0ABFEE068FFF72CFF03462046B1
:101B3000BDE81040184700BFE1260200EC26020075
:101B4000F8B50646FFF7AAF906F51D740025D6F884
:101B5000B432AB420AD92046FFF7D2FF27461034F1
:101B600020B13846FFF7D4FF0135F0E7F8BD10B4D7
:101B7000D0E9003409686210E40701EB020048BFB5
:101B80008A585DF8044B48BFD358184708B501463A
:101B90000430FFF7ECFF08BD034AC260034607C9E3
:101BA00083E80700704700BF5026020010B586B0DA
:101BB00004460391684606A980E80C0001E90C0080
:101BC000204603A9FFF7E8FF204606B010BD37B551
:101BD0006C4684E80C0094E80C000546FFF7E6FF2D
:101BE000284603B030BD000030B5044689B0FFF789
:101BF00045F92A4BC4F870322046FFF747F9284BC5
:101C000002930023039302AB0CCB214604A8FFF7F9
:101C1000DEFF2046FFF732F9D4F8B402032809D8D2
:101C2000431C04EB0010C4F8B43204A900F51D7085
:101C3000FFF759FF2046FFF729F904A8FEF777FBC5
:101C4000BC2006F00BFC174B054640F8043BFEF7A2
:101C500067FB002105F1400006F016FE05F1540077
:101C600006F0B0FD104B00934FF48072002328461D
:101C7000182106F081FEC4F85C520C4904A8FEF756
:101C800069FB04A9284606F0CBFE04A8FEF74FFB2B
:101C90002046FEF735FD09B030BD00BF71190100C7
:101CA00001070100F83C02005C260200A5180100B3
:101CB000A0F5A070FFF798BF08B5FFF767FF08BD54
:101CC00008B5FFF7F9FF08BD37B50F4C0F4D20469B
:101CD00006F02AFD2A460E49204606F0B4F90D4CBE
:101CE00042F212030122CDE90032002211464FF4E4
:101CF000F8532046FFF764FE07492A46204603B002
:101D0000BDE8304006F09FB9E81A0020000200202C
:101D10004387010030180020651A010008B50BF058
:101D2000A5FD2DE9F04F027D012A85B005460E463E
:101D300040F0908000214FF0FF3B04460B465F4689
:101D400094F804C048B2BCF1000F75D194F805C0F6
:101D5000BCF1000F70D1B7F1FF3F1BBF01335BB285
:101D600001233846934201DD1A4683460131082992
:101D700004F102045ED1002402EB0B03A14602939E
:101D8000CB4502DC029B4B4559DC95F8058095F864
:101D900004A04FEA28170AF00F03FAB25FEA2A1AE2
:101DA000019208F00F0870D05FFA8AF1BAF1090FBA
:101DB000D4BF303157313046039300F0B9F8039B5C
:101DC0000444092B94BF03F1300103F1570130465D
:101DD000039300F0ADF80444BAF1000F02D1039B65
:101DE00003B94FB1092F019FD4BF30375737F9B22C
:101DF000304600F09DF80444B8F1090F94BF08F193
:101E0000300108F15701304600F092F8B9F1070FA0
:101E1000044404D03A21304600F08AF8044409F121
:101E20000109B9F1080F05F10205A9D1204605B055
:101E3000BDE8F08F074683E74FF0FF3096E7CB45CC
:101E4000EDD1BBF1000FE5D13A21304600F070F83A
:101E50000444DFE700F1100700F11309002417F82C
:101E6000011B0A22304600F0ABF82E218046304696
:101E700000F05EF8B94540440444F0D10A22E97C00
:101E8000304600F09DF80444D0E7002B99D1A8E734
:101E900010B5054B03600446017510220021043083
:101EA0000CF0AEFF204610BD1C28020070B5074D97
:101EB0000560837400259DF81030057545608560C8
:101EC000C56001744274C37470BD00BF1C28020059
:101ED00007B501210648FFF7DBFF002300931A46F0
:101EE00019460448FFF7E2FF03B05DF804FB00BFAA
:101EF000FC1A0020141B002070B5044608460D464D
:101F00000DF05EFB23680246294620465B68BDE86B
:101F10007040184709B1FFF7EFBF084670470368E4
:101F20008A685B680968184708B5FFF7F3FF08BDC2
:101F300003681B68184700000149FFF7DDBF00BFB9
:101F40002B3A020038B50546FFF7E9FF044628465C
:101F5000FFF7F2FF204438BD38B50546FFF7DAFF3A
:101F600004462846FFF7E8FF204438BD70B58AB024
:101F70000D460AA9002301F8043D012A98BF0A2250
:101F8000B5FBF2F402FB1456F3B2092E94BF3033C2
:101F90003733DBB2254601F8013D002CF0D1FFF7C5
:101FA000B9FF0AB070BD10B42AB903685DF8044BDC
:101FB0001B68C9B21847D2B25DF8044BFFF7D6BF11
:101FC000FFF7F1BF10B5044600F018F9E060236890
:101FD00020465B699847002808DA00F00FF9E368AB
:101FE000C01AA3689842F2D34FF0FF3010BD000032
:101FF00070B50D4609490446164600F05CF82846BF
:10200000FFF7E0FF002806DBC1B2B14203D0204653
:1020100000F09DF8F3E7204670BD00BF583602007F
:1020200010B50446006808B10CF0A2FA204610BDB5
:1020300010B50446006808B10CF09AFA002323603A
:10204000C4E9013310BD38B504460D4600680131BE
:102050000CF036FF10B1C4E90005012038BD03685B
:1020600010B5044623B143688B4201D3012010BD53
:102070002046FFF7E8FF0028F9D0A368002BF5D130
:1020800022681370F3E770B50E46114604461546F4
:10209000FFF7E5FF20B92046FFF7CAFF204670BDD5
:1020A0002A463146A56020680CF0ACFD2268A36882
:1020B0000021D154F2E738B500230446C0E90033CB
:1020C00083600D4639B108460DF07AFA294602467A
:1020D0002046FFF7D8FF204638BD884210B50B4692
:1020E000044604D0096821B19A68FFF7CCFF204666
:1020F00010BDFFF79DFFFAE710B500230446C0E9C5
:1021000000338360FFF7E9FF204610BD2DE9F04161
:1021100005461746884619B900263046BDE8F081C5
:102120009AB1846814442146FFF799FF06460028B7
:10213000F2D0AB6828683A46184441460CF062FD7C
:102140002B68AC6000221A55E7E70126E5E707B5E2
:1021500002AB012203F8011D1946FFF7D7FF03B0B8
:102160005DF804FB10B50446FFF7F1FF10B92046F7
:10217000FFF75EFF204610BD83688B4203D90068DD
:1021800010B1405C704700207047FFF7F5BF0000BA
:1021900010B500F047F8FEF70DF9FEF74BFEFEF71D
:1021A0003FFE4FF4E1310648064CFFF71DFDFEF7F8
:1021B00001F8FEF72BF8002CFBD0AFF30080F8E716
:1021C000301800200000000010B50446FEF7EFF8BC
:1021D00084423BBF2401024B4FF0FF30185710BD23
:1021E0000402002010B5044602F07BFE204610BD1C
:1021F00010B5044602F075FE204610BD07B507492C
:10220000684602F0ABFE4FF47A720023DDE900016C
:102210000BF05CF903B05DF804FB00BF301B00203D
:1022200006F062BB08B5044802F065FE0348BDE84D
:10223000084002F060BE00BF481B0020301B002099
:1022400038B50A4C0A4D204602F0C5FE2046094C1E
:1022500009492A4605F0F7FE204602F0C7FE2A4645
:1022600020460649BDE8384005F0EDBE481B002079
:1022700000020020301B0020F1210100E5210100B7
:1022800008B590F900305A1C04D121220E490F489C
:1022900005F0F4FA012259B11F2B86BF03F01F038A
:1022A0000B494FF0A04102FA03F3C1F8083508BD0D
:1022B0001F2B86BF03F01F0305494FF0A04102FA10
:1022C00003F3C1F80C35F2E7A7280200B528020095
:1022D000000300502DE9F84304460F46FEF767F867
:1022E000844236D21C4D4FEA041805EB0802D06830
:1022F00010B1012106F0C8F82046FFF765FF8146BE
:10230000012006F0ABF8002606704946044604F0AA
:1023100069FB05EB0803012FDC6010D006D3022F08
:1023200012D0204602F0E3FA012103E0204602F039
:10233000DEFA31462046BDE8F84302F0E5BA204611
:10234000BDE8F84302F0C6BA204602F0D0FA0321F5
:10235000F0E7BDE8F88300BF04020020F7B50646A9
:102360000F46FEF724F886421BD20F4D05EB0615EB
:10237000EC687CB93046FFF727FF0646012006F0DF
:102380006DF800230446037001220097314604F0E3
:102390003FFBEC603946204603B0BDE8F040FFF754
:1023A0006FBF03B0F0BD00BF040200201EF0040F99
:1023B0000CBFEFF30880EFF30980816911F8021C6C
:1023C000002932D101B590E80F10E047BDE8005078
:1023D0008CE80300244B93E80600914208BF704745
:1023E0001A6041B91EF0100F10D1204B186820F070
:1023F000010018600AE02CE9F00F1EF0100F08BF72
:102400002CED108A81F822E0C1F838C0906B92F868
:10241000221061F0FF0E1EF0100F08BFB0EC108A02
:10242000B0E8F00F80F309887047114A13689942A9
:10243000FAD801B552F821C00FC8E047BDE80050F6
:10244000CCF80000704701B501F030FBBDE8014059
:10245000EFF3098CBEE701B501F0ECFABDE80140ED
:10246000EFF3098CB6E700003804002034EF00E0F9
:102470009429020008B5014630B96FF0030000F05E
:10248000EEF96FF0030008BD132001F0AFFE30B984
:102490004FF0FF3000F0E3F94FF0FF30F3E700209A
:1024A000F1E7000008B5EFF305832BB9EFF31083D4
:1024B00013B9EFF3118333B16FF0050000F0CFF9DA
:1024C0006FF0050008BDDFF808C000DFFAE700BFC5
:1024D00075240100EFF310832BB9EFF3118000385E
:1024E00018BF0120704701207047000038B505462D
:1024F000A0B1846802686CB114F0030302D1C16812
:102500000F2926D86FF00801002002F0A7F8002458
:10251000204638BDC368002BF4D11546104BD3F8C4
:10252000900078B100F0FAFB0446A0B10123A3703B
:102530000023C4E90233F322094B2270094A656083
:102540005A66E5E7D3F880000122102100F06EFB07
:10255000EAE71546EBE76FF0040102F07FF8D7E7F2
:1025600024040020D1250100930710B502F00104D6
:1025700022D400F10C0384B153E8000F00EA0102F9
:102580008A4203D0BFF32F8F002005E020EA01022A
:1025900043E8002404B1EFE710BD53E8000F084200
:1025A00003D1BFF32F8F002005E020EA010243E8AA
:1025B000002404B1F1E7EFE7C06801EA00031CB1B1
:1025C000994218BF0020E7E7002B08BF0020E3E78F
:1025D000F8B58468054604B9F8BD94F82320616A0B
:1025E000A7682846FFF7C0FF064638B1204601F02D
:1025F000D6FB00223146204601F050FD3C46EAE77A
:10260000F8B50D4617461E46044620B10378F32B55
:1026100001D1002907DA20466FF0030102F01EF80D
:102620006FF00300F8BDFFF79FFF0028FAD186B1D5
:102630003146432001F0DAFD40B1074B5E69204688
:10264000314601F091FB756286F823706FF001004E
:10265000E8E76FF00200E5E72404002070B50546C6
:1026600010B10378F32B07D028466FF0030101F077
:10267000F5FF6FF0030070BD836863B1284601F079
:1026800085FB00226FF0020101F008FDA868002818
:10269000F4D101F0E9FBAB78002613F001032E70B2
:1026A0000FD0094BD3F89040294624B1204600F0C2
:1026B0004FFB3046DFE7D3F8800000F0EBFA20460E
:1026C000D9E71846D7E700BF240400202DE9F041E0
:1026D000064620B10378F32B01D1002909DA6FF007
:1026E0000301304601F0BAFF6FF003052846BDE84C
:1026F000F08100F10C0353E8002F42EA010543E8A2
:10270000005000B1F7E7B4681CB9204601F0ACFBFB
:10271000ECE794F82320616AD4F808803046FFF78C
:1027200023FF074678B194F823309B0756BF656AAC
:10273000054620EA0505204601F031FB0022394616
:10274000204601F0ABFC4446DEE7000008B5024637
:10275000EFF3058333B100206FF0050101F07EFF38
:10276000002008BDFFF7B6FE0028F4D1DFF808C04E
:10277000104600DFF5E700BFED24010038B5024642
:10278000EFF305834BB192B96FF00301104601F0EE
:1027900065FF6FF00304204638BDFFF79BFE00285D
:1027A000F1D1DFF830C0104600DF0446F3E71378BC
:1027B000F32BE9D10029E7DB02F10C0353E8000F0A
:1027C00040EA010443E8004505B1F7E7104601F08F
:1027D000B5F9E0E7CD26010038B504461D46EFF314
:1027E000058343B18CB920466FF0030101F036FF39
:1027F0006FF0030038BDFFF76DFE0028F2D1DFF85F
:1028000028C020462B4600DFF4E72378F32BEAD1DB
:10281000002DE8D10029E6DB2046FFF7A5FE0028C1
:1028200008BF6FF00200E5E70126010008B5024687
:10283000EFF305833BB110466FF0050101F00EFF89
:102840006FF0050008BDFFF745FE0028F3D1DFF863
:1028500008C0104600DFF5E75D26010070477047AD
:10286000EFF310832BB9EFF31180003818BF01206C
:102870007047012070470000064BDA6A3AB1D06910
:102880005B6C1BB11B69984228BF184670474FF01C
:10289000FF30F5E72404002070B5464C237A012B65
:1028A00000F0858033B14FF0FF3001F0CBFE4FF0E8
:1028B000FF3070BD404DD5E90B61EB68E3652B8AB5
:1028C000A4F854303046AB68236400F097F908B19F
:1028D000C4F88060D5E90561304600F08FF908B989
:1028E000D4F880606667D5E90761304600F086F964
:1028F00008B9D4F88060A667D5E90961304600F0D0
:102900007DF908B9D4F88060E6676E6B3EB1D6E910
:1029100002233168304600F0E0F9C4F88460AE6B01
:102920003EB1D6E902233168304600F0D6F9C4F84A
:102930008860EE6B3EB1D6E902233168304600F084
:10294000CCF9C4F88C602E6C3EB1D6E90223316814
:10295000304600F0C2F9C4F890606E6C3EB1D6E922
:1029600002233168304600F0B8F9C4F89460AE6CC8
:102970003EB1D6E902233168304600F0AEF9C4F822
:102980009860EE6C3EB1D6E902233168304600F023
:10299000A4F9C4F89C602D6D3DB1D5E902232968E6
:1029A000284600F09AF9C4F8A050012323720020B1
:1029B0007FE700BF240400202429020070B5254DC4
:1029C0002B7A012B07D06FF0060001F03BFE4FF091
:1029D000FF34204670BD01F03DFC10B94FF0FF30D0
:1029E000F3E71D4A1D4E1E497068FF2382F822300E
:1029F00092F82230D26863F0FF03DB4314BFB3FACE
:102A000083F32023C3F12003C2F30222934298BF31
:102A1000531CFE2202FA03F30F4ADBB2D37701F014
:102A20006DFE04460028D9D101F0BCFE286101F0FA
:102A3000A5FE0C4801F0AAF901F00EFA3368DB0795
:102A40004CBF0223032383F31488BFF36F8F022349
:102A50002B72BEE72404002000ED00E024290200D0
:102A6000572401004004002010B50F4C237A022B9C
:102A700013D101F08BFE01236372BFF34F8F0B4A1A
:102A80005168C90042BF4FF000615160A372042336
:102A90002372BDE81040FFF7EFBE6FF0070001F0B2
:102AA000D1FD002010BD00BF2404002000ED00E097
:102AB00038B51E4C237A042B054635D1FFF7DCFED2
:102AC000E26AA842034694BF00F1FF332B4612B1DD
:102AD000D069C01AD061626C12B11069C01A10615D
:102AE000E06803440544E360E368AB4213D102238A
:102AF0000020237201F0B8F900236372BFF34F8FF7
:102B0000A27A22B1A3720A4B4FF080525A60BDE8FC
:102B1000384001F033BE0133E36001F063F9236D07
:102B2000002BE1D09847DFE738BD00BF2404002028
:102B300000ED00E0704738B504460D46FFF78EFE05
:102B400029462046BDE8384001F03EBD08B5FFF7F4
:102B5000F1FFEFF3058333B16FF0050001F072FD73
:102B60006FF0050008BDFFF77BFE0028F4D1DFF809
:102B700008C000DFF6E700BF9928010008B5EFF3B1
:102B8000058333B16FF0050001F05CFD6FF00500C7
:102B900008BDFFF765FE0028F4D1DFF808C000DFAC
:102BA000F6E700BFBD29010008B5EFF305832BB19F
:102BB0006FF0050001F046FD002008BDFFF750FE54
:102BC0000028F5D1DFF804C000DFF6E7692A01002C
:102BD00008B50246EFF305832BB1BDE808406FF05E
:102BE000050001F02FBDFFF73BFE0028F5D1DFF80F
:102BF00008C0104600DF08BDB12A010010B598B129
:102C000040EA010313F007030ED117290AD9016026
:102C1000083910220C18846042600B5081684A60A9
:102C2000C3600123184610BD0023FBE7F0B578B35D
:102C300099B132F003032BD10F3121F0070700F1D6
:102C400008052B462D685C68E91A24F00304091B6B
:102C50008F4204D929680029F3D10846F0BD46689F
:102C600004683E4446602044083841688E4288BF6C
:102C7000466058683A4318B95A6003F10801ECE716
:102C800020F0030019181D504A6019600831E4E76C
:102C90000021E2E730B590B1D9B1A1F1080500F10A
:102CA00008040022AC420BD151F8043C23F0030489
:102CB00043681B1B436042B941F8042C012030BD1E
:102CC000236822463BB11C46ECE751F8083C1360F0
:102CD000F4E70846F3E71846F1E730B5C0B189B12B
:102CE000C2B1CBB10024C0E9014202FB01F41D19BD
:102CF0000160C360436105611846013904D1A21A1D
:102D000099500121084630BD851805602846F4E732
:102D10000146F7E71146F5E71946F3E710B5034614
:102D2000A8B100F1140252E8000F10B9BFF32F8FC1
:102D300004E0016842E8001404B1F4E738B1043358
:102D400053E8002F511C43E8001404B1F8E710BD0C
:102D500030B5F0B1C3688B421BD803698B4218D9D8
:102D600000F114031A680A60BFF35F8F53E8002F65
:102D70000C689442F6D143E8001505B1F2E704303F
:102D800050E8003F5A1E40E8002101B1F8E700205A
:102D900030BD6FF00300FBE7EFF310832BB9EFF3C7
:102DA0001180003818BF0120704701207047036B65
:102DB00030B5E3B1CD780024DA78AA420FD31A46B1
:102DC000C1E901248AB19160A4B16160283050E862
:102DD000003F5A1C40E8002101B1F8E730BD5A68B5
:102DE0001C46002AECD01346E6E7C162ECE7C1E9D5
:102DF0000133C1620163E9E7D1E9013223B19A608D
:102E00008A681AB153607047C262F9E7036370477A
:102E1000F8B5877804468FB3C56801460027284671
:102E200005F10C06FFF7E8FF27703046FFF790FF2B
:102E3000AB68002B48D03046FFF770FF04460028EF
:102E400042D0284600F0A2FF3A460646394601F035
:102E500025F9304600F0F6FF6A6A8168064604F1FB
:102E60000C000BF0CFFEF9232370A770F368E3701A
:102E700021462846BDE8F840FFF799BF8568AB6852
:102E8000002BF5D05B78832BF2D1284600F07EFF33
:102E90003A460646394601F001F9304600F0D2FFC5
:102EA00006466A6A806804F10C010BF0ABFEF36819
:102EB0000BB1E2781A7000232370214605F10C0053
:102EC000BDE8F840FFF744BFF8BD00002DE9F04130
:102ED0000C4617469846054618B10378FA2B00D1E0
:102EE00041B928466FF0030101F0CEFB6FF00300FB
:102EF000BDE8F0818368C3B15B78832B15D100F006
:102F000045FF01220646002101F0C8F8304600F0D6
:102F100099FF06466A6A806821460BF073FEF068E6
:102F20000028E5D007700020E2E705F10C00FFF76C
:102F3000F5FE064670B121466A6A0C300BF062FE5F
:102F40000024F9233370B470F77031462846FFF738
:102F50002EFFE8E7B8F1000F10D04146932001F0B2
:102F600045F940B1074B2846596900F0FDFEEFF3E3
:102F70000983C3E902476FF00100B9E76FF002006F
:102F8000B6E700BF240400202DE9F84F8846074625
:102F900038B131B1B0FA80F3B1FA81F10B441F2B93
:102FA00006DC6FF00301002001F06EFB002470E0EE
:102FB00008F1030626F003060C3606FB00F9F2B111
:102FC00094683CB1A30702D1D368332B05D86FF0C6
:102FD0000801E8E7D368002BF9D1D2E90453D2F80D
:102FE00000A03DB115F0030B01D1994554D96FF004
:102FF0000901D8E7002BFAD11CB19B460CE09246A0
:103000001546274BD3F8A000D8B1FFF787FE04463A
:10301000A0B14FF0010B35BB214B0022D86F4946C0
:10302000FFF704FE0546C0B9BBF1000F06D01C4BEC
:10303000D3F8A000214658B1FFF78AFE6FF00401D3
:10304000B1E7D3F8800001223421FFF7EFFDDEE77E
:10305000D3F88000FFF71EFEF0E74A4600210BF090
:10306000CFFE4BF0020BFA2323700023C4E909833F
:10307000C4E90B33A36032462B4684F802B0C4F88F
:1030800004A0394604F10C00FFF727FE044B054A63
:103090001A672046BDE8F88F002CE4D1B1E700BFE5
:1030A00024040020112E010010B500F1280353E87C
:1030B000002F12B9BFF32F8F04E0511E43E8001414
:1030C00004B1F4E70AB9002010BDC06A012300284A
:1030D000F9D0821CD2E84F1FC2E8443F04B1F9E79F
:1030E00011F0FF0FF0D08068F1E700002DE9F0410A
:1030F0000F4615469846044618B10378FA2B00D1BE
:1031000041B920466FF0030101F0BEFA6FF00300F1
:10311000BDE8F081FFF7C8FF064600283AD0014617
:103120002046FFF769FE626A06F10C0138460BF093
:1031300069FD0DB1F3782B70002504F10C07357093
:1031400031463846FFF704FEA3680BB90020DFE7DD
:103150003846FFF7E3FD06460028F7D0204600F08A
:1031600015FE29460746012200F098FF384600F078
:1031700069FE626A8168074606F10C000BF042FDA9
:10318000F9233370B570FB68F37031462046FFF7C2
:103190000EFEDBE7B8F1000F10D04146832001F0AE
:1031A00025F840B1074B2046596900F0DDFDEFF3EB
:1031B0000983C3E902756FF00100A9E76FF002000F
:1031C000A6E700BF2404002008B5064B08219A6E2C
:1031D000D86EFFF7D9FE044BD864B0FA80F04009EE
:1031E000404208BD24290200240400202DE9F041BA
:1031F00006460F4690461C46EFF305834BB196B941
:1032000030466FF0030101F03FFA6FF00300BDE8B4
:10321000F081FFF7C1FD0028F1D1DFF84CC0304646
:10322000234600DFF3E73378FA2BE9D1002FE7D00C
:10323000002CE5D106F10C00FFF770FD054680B1CA
:10324000726A39460C300BF0DDFCF9232846C5E9DB
:1032500001762B70AC7085F8038000F06FFC20467F
:10326000D5E76FF00200D2E7CD2E0100F8B5044695
:103270000F4616461D46EFF3058343B18CB9204631
:103280006FF0030101F000FA6FF00300F8BDFFF7E3
:1032900083FD0028F2D1DFF848C020462B4600DF2E
:1032A000F4E72378FA2BEAD1002FE8D0002DE6D1FD
:1032B0002046FFF7F9FE054670B100F10C01626A85
:1032C00038460BF09FFC0EB1EB7833702846EC606B
:1032D00000F034FC0020D9E76FF00200D6E700BF11
:1032E000ED300100EFF310832BB9EFF311800038BC
:1032F00018BF0120704701207047000070B5A8B3C7
:103300008468D0E900566CB114F0030302D1C2689E
:103310001B2A1AD86FF00801002001F0A5F900243B
:10332000204670BDC368002BF4D1124BD3F8940033
:1033300030B9D3F8800001221C21FFF777FC01E0AF
:10334000FFF7ECFC044660B10123F522A3700023D3
:10335000C4E90233C4E904332270E6706560237661
:10336000DEE76FF0040101F07FF9D9E70546064674
:10337000DBE700BF24040020284B70B55D690446DC
:103380000E4635B96FF0070101F06EF94FF0FF30CE
:1033900070BD10B10378F52B07D020466FF0030104
:1033A00001F062F96FF00300F2E7037E53B9C0E960
:1033B0000353EB6A436103B11861EC620123237686
:1033C0000020E5E7C278D1070DD5C168A9420AD12E
:1033D000FF2B06D16FF00F0101F046F96FF00200EC
:1033E000D6E70133EBE7002EF8D093070AD5E06863
:1033F00095F9203090F920209A4203DA80F82030A5
:1034000000F0D6FC3146532000F0F0FE18B12946FA
:10341000204600F0A9FC6FF00100B9E72404002069
:103420002E4B5A6970B5044632B96FF0070101F0AE
:103430001BF94FF0FF3070BD10B10378F52B07D0AA
:1034400020466FF0030101F00FF96FF00300F2E77F
:10345000037E33B96FF00E0101F006F96FF0020040
:10346000E9E7C168914202D06FF00D01F4E7013B3A
:10347000DBB2037613BB43690BB1016919612169A2
:10348000F1B14B6192F92130D56ADDB982F8203073
:10349000A36883B1204600F079FC06462A462946F7
:1034A00000F0FCFDF36A6361C4E9036503B11C61CC
:1034B0000123F4622376002000F0D6FC0020BAE756
:1034C000D362DFE7E978890706D5A96821B191F9C8
:1034D00020108B42B8BF0B466D69D6E7240400204C
:1034E00070B5044610B10378F52B07D020466FF075
:1034F000030101F0B9F86FF0030070BD037EBBB1AA
:103500006369C0680BB122691A61226902B3536111
:1035100090F92120C36AEBB990F92030934203D08F
:1035200080F8202000F044FCA068F8B900F09CFC72
:10353000A078002610F001002670DED0134BD3F8DF
:1035400094502146DDB12846FFF702FC3046D4E70F
:10355000C362DDE7D978890706D5996821B191F969
:1035600020108A42B8BF0A465B69D4E7204600F0C3
:103570000DFC00226FF0020100F090FDD4E7D3F8BB
:103580008000FFF787FB2846B7E700BF2404002030
:103590002DE9F0410446002601270CB9BDE8F08171
:1035A000E378D4F814801B0712D5A36826767BB184
:1035B000204600F0EBFB00220546114600F06EFDB0
:1035C000EB6A6361C4E9035603B11C61EC622776C0
:1035D0004446E2E710B4C3789B071DD5C06890F954
:1035E0002120C36ADC78A40709D59C688C4208BFF7
:1035F0008C6824B194F92040A242B8BF22465B698E
:10360000002BEFD190F92030934205D080F8202094
:103610005DF8044B00F0CCBB5DF8044B7047000034
:1036200008B50246EFF3058333B100206FF00501C2
:1036300001F01AF8002008BDFFF754FE0028F4D16D
:10364000DFF808C0104600DFF5E700BFFD320100DB
:1036500008B50246EFF305833BB110466FF0050154
:1036600001F002F86FF0050008BDFFF73BFE0028EF
:10367000F3D1DFF808C0104600DFF5E77933010029
:1036800008B50246EFF305833BB110466FF0050124
:1036900000F0EAFF6FF0050008BDFFF723FE0028E9
:1036A000F3D1DFF808C0104600DFF5E72134010050
:1036B00008B50246EFF305833BB110466FF00501F4
:1036C00000F0D2FF6FF0050008BDFFF70BFE0028E9
:1036D000F3D1DFF808C0104600DFF5E7E134010060
:1036E000EFF310832BB9EFF31180003818BF0120DE
:1036F0007047012070470C30D0E85F3F13B9BFF32B
:103700002F8F04E05A1EC0E8512F01B1F4E798B2A0
:10371000003818BF0120704730B500F10C02C18994
:10372000D2E85F3F994202D8BFF32F8F04E05C1CC0
:10373000C2E8554F05B1F3E7C0899BB2984294BFE8
:103740000020012030BD0000F8B515464FF6FE738D
:10375000421E9A4206460F4601D8884207D26FF0B1
:103760000301002000F086FF00242046F8BD7DB153
:10377000AC682A6844B114F0030302D1E9680F2948
:1037800022D86FF00801ECE7EB68002BF9D1154661
:10379000114BD3F8980080B1FFF7C0FA0446A8B1E6
:1037A0000123A3700023F622A3600B4B22700B4A67
:1037B0006560A781E6819A66D7E7D3F88000012289
:1037C0001021FFF733FAE9E71546EAE76FF0040145
:1037D00000F050FFC9E700BF24040020E1370100DA
:1037E000836810B504465BB1FFF785FF40B1204602
:1037F00000F0CCFA0022BDE81040114600F04EBCAB
:1038000010BD38B5054610B10378F62B07D0284611
:103810006FF0030100F02EFF6FF0030038BD8468E5
:103820003CB100F0B3FA0122002100F037FC002087
:10383000F4E7FFF771FF38B928466FF0100100F088
:1038400019FF6FF00200E9E72046E7E738B50D46BB
:10385000044610B10378F62B07D020466FF0030121
:1038600000F008FF6FF0030038BDFFF744FF68B9B0
:1038700075B12946632000F0B9FC20B1064B204603
:10388000596900F071FA6FF00100EDE70020EBE7F5
:103890006FF00200E8E700BF2404002070B5054681
:1038A00010B10378F62B07D028466FF0030100F023
:1038B000E1FE6FF0030070BD836863B1284600F03D
:1038C00065FA00226FF0020100F0E8FBA86800280A
:1038D000F4D100F0C9FAAB78002613F001032E7082
:1038E0000FD0094BD3F89840294624B12046FFF762
:1038F0002FFA3046DFE7D3F88000FFF7CBF92046F8
:10390000D9E71846D7E700BF2404002010B50446C5
:10391000EFF3058333B100206FF0050100F0AAFE3C
:10392000002010BDFFF7DCFE0028F4D1DFF808C04E
:10393000204600DFF5E700BF4937010008B5024621
:10394000EFF3058343B182B910466FF0030100F035
:1039500091FE6FF0030008BDFFF7C2FE0028F2D110
:10396000DFF824C0104600DFF5E71378F62BEBD123
:103970000029E9D11046FFF7BEFE002814BF002041
:103980006FF00200E7E700BF4D38010010B50446B4
:10399000EFF3058343B184B920466FF0030100F0D3
:1039A00069FE6FF0030010BDFFF79AFE0028F2D108
:1039B000DFF830C0204600DFF5E72378F62BEBD1A7
:1039C0002046FFF7A9FE20B1204600F0B7F80020FE
:1039D000E9E720466FF0100100F04CFE6FF00200A6
:1039E000E1E700BF0338010008B50246EFF30583A5
:1039F0003BB110466FF0050100F03CFE6FF0050092
:103A000008BDFFF76DFE0028F3D1DFF808C01046AF
:103A100000DFF5E79D38010010B5D0E85F3F5A1C84
:103A2000914200D80022C0E8542F04B1F5E798B2C3
:103A300010BD000038B51C4C00F0AEFEE368013349
:103A4000E36000F0CFF9002000F00EFA236D03B11F
:103A50009847226C32B3A369E16B994203D0D969CC
:103A6000E36301B9DA61DA69C2B9237A022B19D1A9
:103A7000656ABDB1E36B95F9202093F920309A4235
:103A800010D1284600F08BF9E06B00F0A3F928462E
:103A900000F0E2F9236CE563EB6103E0013ADA61DF
:103AA000002AE2D038BD00BF2404002070B5224CAB
:103AB00004F1560504F15A06B4F85410D5E85F3FF6
:103AC00013B9BFF32F8F04E05A1EC5E8502F00B181
:103AD000F4E79BB25BB33046FFF79EFFE36D53F80C
:103AE000200020B30378F13B082BE5D801A252F85F
:103AF00023F000BF193B0100B93A01001F3B010050
:103B0000B93A0100B93A0100233B0100273B01000B
:103B1000B93A01002B3B0100236E9847CCE7636E56
:103B2000FBE7A36EF9E7E36EF7E7236FF5E7BDE880
:103B30007040002000F098B92404002070B5164CA5
:103B40000546B4F8541004F15602D2E85F3F99429A
:103B500002D8BFF32F8F04E0581CC2E8560F06B1FD
:103B6000F3E79BB2994205D829460220BDE8704090
:103B7000FEF7E1BF04F15800FFF74EFFE36D43F895
:103B80002050637A23B9054B4FF080525A6070BDC4
:103B90000123A372FBE700BF2404002000ED00E036
:103BA000EFF310832BB9EFF31180003818BF012019
:103BB0007047012070470378F12B00D07047C06830
:103BC000F9E7000010B5C469621CD0E904310CD1DA
:103BD00003B1596142691AB113610023436101E0E5
:103BE000074A13630023C36110BD1BB1DA69596131
:103BF0002244DA614269002AEED1014AD362F1E738
:103C00002404002010B50A4A90F9201001234370C3
:103C1000536A1C321BB193F920408C4205DCC0E989
:103C20000232906003B1D86010BD1A469B68F1E77C
:103C300024040020014B5869704700BF2404002071
:103C400008B500F027FDDFF810C000DF4FF0FF31AE
:103C5000002000F0FDFCFEE705410100930710B5D0
:103C600002F0010422D400F1280384B153E8000FCC
:103C700000EA01028A4203D0BFF32F8F002005E043
:103C800020EA010243E8002404B1EFE710BD53E845
:103C9000000F084203D1BFF32F8F002005E020EA78
:103CA000010243E8002404B1F1E7EFE7806A01EA8A
:103CB00000031CB1994218BF0020E7E7002B08BFA2
:103CC0000020E3E710B5084A136B00213BB94FF021
:103CD000FF34C0E90431C46121B1086110BD194647
:103CE0001B69F3E71063F9E72404002010B50023F3
:103CF000038083789A07044608D513F0100F016BF0
:103D00000E4B0FD0D3F88400FFF722F8A378DB071F
:103D100012D50A4BD3F88800214638B1BDE81040CF
:103D2000FFF716B8586FFEF7B5FFEFE7BDE8104094
:103D3000D3F88000FEF7AEBF10BD00BF2404002002
:103D4000C278D207034601D4FFF7D0BF04224270E5
:103D50000022C260034A516B816001B1C8605363A5
:103D6000704700BF2404002010B591F9202083681B
:103D70001BB193F92040944205DAC1E90230816019
:103D800003B1D96010BD18469B68F1E783689A6853
:103D9000826002B1D0600022DA6018467047C268C3
:103DA0002AB18368936003B1DA600023C36070476F
:103DB00010B50146044664B12378F12B07D00846BC
:103DC000FFF7EDFF2046BDE81040FFF7CDBFE468E8
:103DD000F1E710BD0123014643700148FFF7C4BF5E
:103DE0004004002038B5164DEC6A44B3E369013B4A
:103DF000E36123BB6378732B06D009D8532B0BD018
:103E000003F0DF03432B0DD12046FFF7D4FE09E07A
:103E100003F0EF03832BF6E72046FFF7CCFE2146A5
:103E2000FFF7D8FB2046FFF7BAFFFFF7D3FF24695F
:103E300024B1E369002BDDD000236361EC6238BD5F
:103E40002404002090F82230826B13F0100F0CBF76
:103E5000602020201044704702234370014B98617A
:103E6000704700BF2404002070B5124D04462E7A1E
:103E7000696990B9022E0FD16C6A6CB194F9202057
:103E800091F920309A4207DD2046FFF788FF084667
:103E9000FFF7B8FE6670AC6170BD022E05D190F9D7
:103EA000202091F920309A42F1DC2046BDE8704094
:103EB000FFF790BF240400202DE9F04F85B0814624
:103EC000029128B96FF0030100F0C2FB0024BCE0AE
:103ED000002A45D0966846B1B40702D1D368432B77
:103EE00006D86FF008010020EEE7D368002BF8D168
:103EF000D2E9044597693CB1600702D1002D40F03A
:103F0000B2806FF00A01EEE72FB17B1E372B03D989
:103F10006FF00B01E7E71827002D40F0A880D2E9E9
:103F200000A301934EBB574BD3F88800F0B1FEF7C6
:103F3000F5FE064600283AD04FF00108002C44D187
:103F4000DFF840B1E5B9504ADBF88400556DB8B1EF
:103F5000FEF7E4FE0246E0B148F01008344623E0E4
:103F600092461446182715460192DCE7D3F88000E4
:103F700001224421FEF75AFEDBE74FF00008DDE79F
:103F80002246DBF874002946FEF750FE0246002860
:103F9000E4D1B8F1000F16D0DBF8882052B11046FA
:103FA0003146FEF7D5FE002248F002087CB96FF0DA
:103FB000040198E7DBF8800003923146FEF76AFEC1
:103FC000039A1446F0E74246EEE72246344640F2B2
:103FD000F1132380019BE3700023C4E90233C4E999
:103FE0000433C4E90633C4E90933C4E90B32A5F14B
:103FF00040031344C4E90E397FB2244B84F8028095
:10400000FD21C4F804A084F8207084F82170618434
:10401000656313601C4B1B685B071AD4A36B0020FD
:104020001A4603F1340143F8040B9942FBD1184BB3
:10403000C2E90D394FF08073D363029B1362114BB9
:10404000144A1A662046FFF70FFF204605B0BDE868
:10405000F08FAD08113D4FF0CC33002DDED042F88B
:10406000043F013DF9E7002F7FF44FAF18276907A0
:104070007FF447AF084BA5F1480199427FF64FAF57
:104080003FE700BF2404002024290200A52E5AE2A5
:10409000413C0100C1400100B7FFFF7F38B5044635
:1040A0001546FFF7CFFE01602046FFF78BFD1DB1DF
:1040B000BDE83840FFF7D8BEBDE83840FFF78ABEFC
:1040C00010B54378332B04460CD1416A90F8232075
:1040D000FFF7C4FD014628B120460022BDE810408C
:1040E000FFF7DCBF10BD10B50446806918B100228F
:1040F0001146FFF7D3FF6378232B02BFA36800228A
:104100009A6110BD70B50F4C267A022E18D1636AE1
:10411000B3B16569E86AFFF73BFA2846FFF7E3FFAA
:1041200004F11C00FFF732FE4670A061EFF3098333
:10413000AB63002363612846BDE87040FFF700BE13
:1041400070BD00BF2404002010B5044610B10378F0
:10415000F12B07D020466FF0030100F079FA6FF0E1
:10416000030010BD437803F00F03022B1ED0032B76
:104170002BD0012B2ED1FFF712FEE06AFFF708FAD1
:104180002046FFF7B0FF6178022926D11548FFF7D6
:10419000FDFD154B41709861EFF30982A263002287
:1041A0005A612046FFF7CCFD0020DAE70E4B1A7A61
:1041B000022A02D15B6A002BDFD16FF00201204698
:1041C00000F046FA6FF00200CBE7FFF7E8FDFFF7DB
:1041D000F9FCD2E76FF00201F2E70020FFF744FE9E
:1041E000DFE700BF400400202404002038B5174C4E
:1041F000237A022B024627D1606A60B160694B1CAA
:10420000427009D1FFF75EFD1148FFF7BFFD0223A1
:104210004370A061012038BDE36A002213B1DD695B
:10422000A9420BD2C0E90432C1615AB11061002B1E
:10423000EAD0DA695861511AD961E5E71A46491B93
:104240001B69EBE7E062F2E70020E4E724040020CA
:104250004004002038B50D4C0D48A26D0D4D0021D5
:10426000FFF72AFE636EA8625BB1984758B9E26D0A
:10427000E96C206EFFF720FEA864003818BF01200B
:1042800038BD0120FCE70020FAE700BF2429020026
:10429000C14501002404002010B50446EFF3058356
:1042A00033B100206FF0050100F0D2F9002010BDFD
:1042B000FFF776FC0028F4D1DFF808C0204600DFC5
:1042C000F5E700BFB93E010008B5EFF3058313B170
:1042D000054B586908BDFFF763FC0028F8D1DFF8EB
:1042E0000CC000DFF6E700BF24040020353C0100CD
:1042F00010B5044600F0DAF9EFF305833BB1204630
:104300006FF0050100F0A4F96FF0050010BDFFF794
:1043100047FC0028F3D1DFF808C0204600DFF5E7AE
:10432000494101000C4A536C30B5002413B11D699A
:104330008D420AD9C0E9024301611BB11D69986031
:10434000691A19612CB1E06030BD1C46491BDB685D
:10435000ECE75064F8E700BF240400202DE9F041A9
:10436000184D6C6C54B323696E69013B23610127BE
:10437000236913BBE3680BB1A2689A606B640023E6
:10438000E86C1A4604F11801FEF730FF58B1D5E980
:104390000583214603206B61FEF7CDFB6B6913B9E2
:1043A000B04508BF0026E378012B09D1616920469A
:1043B000FFF7B8FF6C6C002CDAD16E61BDE8F081BC
:1043C0006770F7E72404002008B5FEF7FDFE18B972
:1043D000034B044A1A6508BD4FF0FF30FBE700BFEE
:1043E000240400205D43010007B504464FF0FF336D
:1043F000002269462046FEF739FF0028F6D1DDE9A4
:1044000000309847F2E7000008B5094B094A1A60E6
:10441000094B9B1A094A1360094B0A4A1A600A4B56
:104420009B1A0A4A136000F051F800F069F800BFC7
:104430001422002000FC0320000004201022002091
:104440001C25002038B0002000FC03201825002087
:104450000E4838B50E4B03600B250E4B45601C24EF
:10446000C4608360FFF7DCF80B4B18600B480C4B03
:10447000C460C0E900350B4B8360FFF7D1F80A4BED
:104480001860BDE8384009F0C7BF00BFE021002038
:10449000F8290200F4210020F0210020B0210020A2
:1044A000052A0200C4210020C0210020FDF770BEB3
:1044B000024B4FF0FF311868FFF7CAB8F021002017
:1044C000014B1868FFF7DCB8F021002008B505F0B3
:1044D00081FABDE8084000F011B87047704708B590
:1044E00000F042F8FFF7F9FFFFF7B2FFFFF7F6FF22
:1044F00003F0DEFBBDE80840FFF7D8BFFEF726BBA0
:10450000114C124B23614FF4004363614423E36079
:104510000F4BA360182307B5A3610E480E4B236011
:1045200022460021FFF7B8FE034628B90B49009048
:1045300022460B4803F0C4FBFEF720FB0023094989
:1045400000931A46F5E700BF30AB0020302B002067
:1045500018220020DF4401001F2A0200242A020042
:104560001D010180402A02001FB5064B0FCB6C468F
:1045700084E80F002046FFF753F8034B186004B09F
:1045800010BD00BF582A0200282B002073B5064634
:104590000C46154603F08EFB58B906342ABF064B6D
:1045A000064953F82410002300933246284603F0AE
:1045B00087FB02B070BD00BF1C2C0200702B0200F4
:1045C00008B500F0F3F8000007B50023421E009381
:1045D0000023042A19D8DFE802F003080C101400A5
:1045E0000C490D48012203F06BFB0C490C480222D8
:1045F000F9E70C490C480322F5E70C490C48042262
:10460000F1E70C490C480522EDE702460B490C483E
:10461000E9E700BF682A020025010280892A02001A
:1046200026010280AE2A020027010280E32A02004E
:10463000280102801E2B02002A0102805E2B02004C
:1046400000010280014A0146FFF7A0BF310101804D
:10465000014AFFF79BBF00BF32010180014AFFF70B
:1046600095BF00BF37010180014AFFF78FBF00BF30
:104670003301018011F1110F02D0024AFFF786BF0A
:10468000704700BF34010180014AFFF77FBF00BFC0
:104690003801018010B5FFF717FE034B1B6813B1FB
:1046A000BDE81040184710BD5C220020024B1B687B
:1046B00003B11847704700BF5C220020024B987A74
:1046C000003818BF012070472404002008B5FEF709
:1046D0006BFA0749002203F085FBC31C04D9054986
:1046E00005488B2203F0CAF8BDE80840FEF770BA0F
:1046F000BD460100572C0200692C0200B0F57A7FFC
:1047000038B50D4604D018491848322203F0B6F8DF
:1047100002F0C4FD041E13DB04F1604303F56143A2
:10472000E02283F800232946204604F041FD20467C
:1047300004F046FD85420AD00B490D483F22E5E7CB
:104740000C4B04F00F021344E0221A76EBE7002C26
:1047500008DB094B6209012004F01F0400FA04F48D
:1047600043F82240002038BD572C0200962C02004E
:10477000A32C0200FCEC00E000E100E008B503F02F
:10478000B9FABDE8084002F088BE0000014B186885
:1047900002F0B8BE48240020014B186802F074BE35
:1047A0004824002008B502F079FD08BD08B5024C88
:1047B00023689847FCE700BFC804002003680BB1DA
:1047C00008461847704710B50446FDF7DDF8204647
:1047D00010BD08B5FDF79CF908BD0000044B002290
:1047E000C3E901221A611A60024ADA60704700BF09
:1047F00060220020BD4701000346002210B503F8E7
:10480000012B00F1110403F8012B9C42FBD14182E2
:1048100010BD000008B542F602110248FFF7ECFF98
:1048200008BD00BF74220020034B1A78034B53F8D5
:10483000223003B118477047CC04002088220020A2
:10484000074B1B785BB1074B0122C3F80823064BCB
:104850005A78FF2A00D1FEE7044A12885A7070473E
:1048600070AC002000F0004092AC0020D4AE0020DC
:10487000F8B50546064655F8044B8CB90D4F386817
:1048800018B14FF0FF31FEF7E3FE346824B9284633
:1048900003F098FF2C463560386808B1FEF7F0FE4B
:1048A000AC4204D0044905488B2202F0E7FF2046C1
:1048B000F8BD00BF282B0020F42C0200032D0200BD
:1048C000036801221B6900211847036800221B6945
:1048D0001146184707B5019003F080F801980121AF
:1048E00004F0F4FF03B05DF804EB03F08DB807B5F6
:1048F000019003F073F80198002104F0E7FF03B082
:104900005DF804EB03F080B807B5CDE9001003F0C3
:1049100065F8DDE9001004F0B7FF03B05DF804EBC3
:1049200003F072B810B50446FBF7EFFC204610BD4B
:1049300010B500210446FBF7DDFC204610BD704792
:10494000416830B4034671B1D0E9032000F001049E
:1049500002B944B1451001EB60000CB149598A58C5
:10496000996830BC104730BC7047000070B500F14A
:104970004C0690F9DF2090F9DE100446304605F031
:10498000C1FAD4E939530DB9DA070ED55A1004EB40
:104990006300DB0748BFA35894F8EC1048BF5D598B
:1049A00094F9ED2094F9EE30A847D4F8D8103046A9
:1049B00005F0B8FB224630460249BDE8704005F0DC
:1049C0008FBC00BF014D01002DE9F0411F46D0F81A
:1049D000E03004460E4615462BB12849284840F2DF
:1049E000351202F04BFF274AC0E9392303681B68E0
:1049F000984784F8EC6084F8ED5084F8EE70042E4B
:104A00000CD8DFE806F0160311161A004FF0FF333A
:104A10002A46012104F14C0005F03CFC23682046A5
:104A20005B68BDE8F04118472B464FF0FF3202218A
:104A3000F0E73B462A463146ECE70120013584F891
:104A400004010AD003F00AFD0023054694F9ED1095
:104A5000037001F0C7FFC4F8F05094F9EE30013351
:104A6000DCD0012003F0FAFC0022054694F9EE1098
:104A7000027001F0BAFFC4F8F450CFE73F2D0200F6
:104A80004E2D0200C949010010B50446FBF73DFC5C
:104A90002046FBF734FC204610BD70B506460446A0
:104AA00056F84C3B0D461B6898473046294605F0A2
:104AB00039FB2368C4F8D85020465B68BDE87040D5
:104AC00018477FB50546044655F84C6B0193CDE970
:104AD00002213668B047DDE901322846039905F026
:104AE000A1FB23685B68204604B0BDE8704018470E
:104AF00038B50546044655F84C3B1B689847284690
:104B000005F09EFC94F804310546C3B1D4F8F430A6
:104B1000ABB193F900305A1C04D11249124821223A
:104B200002F0ACFE012280B91F2B86BF0F4903F0B3
:104B30001F034FF0A04102FA03F3C1F808352368C0
:104B400020465B689847284638BD1F2B86BF07491B
:104B500003F01F034FF0A04102FA03F3C1F80C3534
:104B6000EDE700BF922D0200B528020000030050BF
:104B700038B50546044655F84C3B1B68984728460F
:104B800005F07EFC94F80431054643B1D4F8F000FA
:104B900004F04CFE002814BF002505F00105236831
:104BA00020465B689847284638BD4C3005F0D4BB9A
:104BB00010B54C300C4605F00DFC204610BD000031
:104BC0002DE9F0419846294B0360294B43600025AD
:104BD000284BC3600446C0E90555C0E90755856008
:104BE0008584006128300F461646FFF7A1FE04F1C8
:104BF0003800FFF79DFE29466C22A4F8485004F1C6
:104C00004C000AF0FDF804F1B800FBF789FB04F151
:104C1000C800FBF785FB40F20113A4F8DC304FF429
:104C20007F43A4F8EC30FF2384F8EE30A368C4F887
:104C3000E850C4E93855C4E93E555A1013F0010F45
:104C4000C4F8005104EB630018BFA2586368C4F8AD
:104C5000D88018BFD35884F8DE7084F8DF6084F8F9
:104C6000045198472046BDE8F08100BFA82D0200FE
:104C70006D4901004149010003682DE9F0410546F5
:104C80001B6816460F46984795F8DC30340103B18F
:104C90007EB195F8DD300BB1012E0AD0B83439461B
:104CA0002819FCF720FF2B6828465B68BDE8F04117
:104CB000184702F093FE3846FCF722FFB8342C4424
:104CC00005F14C0888B12046FCF71AFF08B903F03B
:104CD000B9F839462046FCF706FF01223146404626
:104CE00005F00EFB02F090FEDDE72046FCF708FF22
:104CF00008B103F0BDF82046FFF7C6FE0022EDE73D
:104D000000EB011110B501F1B8042046FCF7F8FEE4
:104D100010B12046FFF75DFD10BD036870B5044675
:104D20001B680D46984794F8DC30AB422DD065B136
:104D300094F8DD304BB9A2686368511004EB62004F
:104D4000D20744BF6258D358984702F047FE04F197
:104D5000B80605B33046FCF7D3FE50B13046FCF739
:104D6000D7FE03F06FF80122002104F14C0005F09A
:104D7000C7FA02F049FE84F8DC5035B994F8DD300A
:104D80001BB904F14C0005F09DF9236820465B68CF
:104D9000BDE87040184704F14C002A46294605F04A
:104DA000AFFA3046FCF7ACFE0028E2D003F060F822
:104DB000DFE7036870B504461B680D46984794F812
:104DC000DD30AB422DD065B194F8DC304BB9A26830
:104DD0006368511004EB6200D20744BF6258D35895
:104DE000984702F0FBFD04F1C80605B33046FCF716
:104DF00087FE50B13046FCF78BFE03F023F801220A
:104E0000114604F14C0005F07BFA02F0FDFD84F838
:104E1000DD5035B994F8DC301BB904F14C0005F0D5
:104E200051F9236820465B68BDE87040184704F1DB
:104E30004C002A46012105F063FA3046FCF760FE7B
:104E40000028E2D003F014F8DFE700001FB51E4B86
:104E50000360044600216846FCF751FC00226946C5
:104E60002046FFF709FF6846FBF761FA0021684614
:104E7000FCF745FC012269462046FFF7FDFE684627
:104E8000FBF755FA94F8DC3013B994F8DD301BB118
:104E900004F14C0005F016F904F1C800FBF747FADD
:104EA00004F1B800FBF743FA04F13800FFF73AFDCC
:104EB00004F12800FFF736FD206A08B102F034F84B
:104EC000204604B010BD00BFA82D020010B5044656
:104ED000FFF7BCFF20464FF4847103F0D5FA20465B
:104EE00010BD437D10B504461BB1037D0BB102F02C
:104EF000BFFF204610BD13B5044601A802F01CF800
:104F0000637D53B9237D0BB102F09CFF206901F052
:104F1000D4FFC4E900010123637501A802F014F86D
:104F200002B010BD37B504460D4601A802F004F8E2
:104F300000230022C4E900236B7D4BB1286901F0F6
:104F4000BCFFD5E90032C01A61EB0201C4E90001DF
:104F500001A801F0F9FF204603B030BD30B585B09F
:104F600004460D4603A801F0E7FF29466846FFF70F
:104F7000D9FFD5E90210009B019A5B1840EB0202B1
:104F8000C4E9003203A801F0DFFF204605B030BDC0
:104F900013B5044601A801F0CFFF206901F08DFF91
:104FA00000220023C4E90001C4E9022301A801F0A2
:104FB000CBFF02B010BDD0B5002300260027C0E90A
:104FC0000067C0E902670446016102754375FFF797
:104FD000DFFF2046D0BD10B5044601F091FF01224D
:104FE00001462046FFF7E7FF204610BD10B50446F6
:104FF00001F04EFD002201462046FFF7DCFF20466F
:1050000010BD03681B68184710B50446074B2360A2
:1050100000220023C4E9022300230846A161C4E959
:105020000433034901F0D8FE204610BDC02D020014
:105030000350010007B5009000F10801806901F0FC
:1050400009FF03B05DF804FB00F10801806901F07D
:1050500019BF002070476FF01C0070476FF01C00F4
:1050600070476FF0150070476FF015007047012012
:10507000704701207047002070470020704770B5CE
:1050800011F0010405468EB204D0FFF731FD041E75
:1050900018BF0124F30605D52846FFF769FD08B1BE
:1050A00044F01004204670BDA0F58470FFF7E7BF00
:1050B00008B5FFF732FE002008BDA0F58470FFF7A9
:1050C000F7BF08B5FFF775FE002008BDA0F5847096
:1050D000FFF7F7BF10B5034B03600446FFF7B6FEBA
:1050E000204610BDCC2D0200A0F58470F2E700BF71
:1050F00010B50446FFF7EEFF20464FF4867103F02B
:10510000C3F9204610BDA0F58470F1E72DE9F04108
:1051100006460D461746CAB102F05DFC80F0010359
:1051200013F0FF0403D0336830461B68984705EB43
:105130000708454505D015F8011B3046FFF738FD37
:10514000F7E71CB1336830465B6898473846BDE8DE
:10515000F081A0F58470FFF7D9BF38B504460D463D
:1051600062B103681B6898472046FFF71EFD287050
:10517000236820465B689847012038BD1046FCE74D
:10518000A0F58470FFF7E9BF10B50446FFF718FDDE
:10519000044B03F1080244332260C4F8083120466E
:1051A00010BD00BFC42D020030B5056885B00446AF
:1051B000CDE9022101932D68A847DDE9013220469F
:1051C0000399FFF701FC23685B68204605B0BDE842
:1051D0003040184710B50446FBF797F82046FBF718
:1051E0008EF8204610BD70B504460E4602F0F6FB60
:1051F000A5695DB104F10800FFF7ECFF012384F815
:1052000020300023E36184F82160A36102F0FCFBFD
:105210002DB121462846BDE8704000F078B970BD38
:1052200008B103F0D7BA02F0D9BB08B103F0F0BA65
:1052300002F0EABB2DE9F041044686B00E4617465F
:1052400002F0CCFBA56902F0DFFB35B301AD002114
:10525000284603F019FB02F0C1FBD4E9068323B111
:105260000F491048392202F009FBE56102F0CCFB3E
:10527000B8F1000F0ED03946284603F00DFB48B9AF
:105280003046FFF7CDFF20460121FFF7ACFF304647
:10529000FFF7CBFF284603F020FB06B0BDE8F08106
:1052A0006D2E0200792E020038B504460025054B0C
:1052B000456040F8083BFBF733F8C4E90655258400
:1052C000204638BDA02E0200074B10B5036083694D
:1052D000044623B105490648262202F0CFFA0830D9
:1052E000FBF725F8204610BDA02E02006D2E02000F
:1052F000872E020030B5044685B004F1080502F09F
:105300006DFB29466846FFF75EFA2846FFF762FF05
:10531000E0690023A36108B103F0DCFA02F074FB3A
:105320006846FCF7EDFB10B16846FFF752FA684695
:10533000FAF7FDFF05B030BD0022C0E901220122CD
:1053400001600273704770470346007B30B1D3E9B8
:105350000020136898428CBF002001207047012371
:10536000D0F800C02DE9F04303FA01F11F4682EAAC
:10537000030E1CF823500D4204D005F030053AB15D
:10538000102D07D10133112BF3D14FF0FF300FE077
:10539000002DF7D05C00023CD0F8088042EA0406F9
:1053A00007FA06F919EA080FECD1202D02D0304691
:1053B000BDE8F0834EEA040407FA04F414EA080F87
:1053C000F5D0DFE770B50D4611462A4604461E4665
:1053D000FFF7C5FF002802DA0020207370BD2168A6
:1053E0006368420801EB8201CD8849791D4406FBC0
:1053F00001510123616003FA00F1A36842EAC01081
:105400000B43A360C0B2E9E713460A460121FFF748
:10541000D9BF13460A460021FFF7D4BF13B50A4689
:10542000019100210446FFF7EFFF019A0021204679
:1054300002B0BDE81040FFF7ECBF0022C0E9002237
:10544000704770470068704700230B60436813B9CA
:105450000160416070471960FBE703682BB11A686F
:1054600002B94260026000221A601846704710B507
:105470000468002223468B4203D083B11A461B687E
:10548000F9E70AB10B6813608C4204BF0B68036034
:1054900043688B424FF0000308BF42600B6010BDB1
:1054A00010B50446FFF7C9FF204610BD08B5FFF749
:1054B000C9FFB0FA80F0400908BD70B5054628461E
:1054C000FFF7C0FF044678B150F8043C061F9B6804
:1054D0003046984740B12846FFF7BFFF54F8043CD8
:1054E0003046DB689847EAE770BD70B504460D4664
:1054F000FFF7A8FFAC610646291D2046FFF7A4FF71
:1055000026B92046BDE87040FFF7D7BF70BD70B523
:1055100005460C46FFF796FF064604B104342146C3
:105520002846FFF7A4FFA64204D12846BDE87040F4
:10553000FFF7C3BF70BD10B504462046FFF782FFDA
:1055400028B150F8043C0438DB689847F5E710BDF3
:1055500010B50446FFF7EFFF2046FFF772FF204625
:1055600010BD7047704703689B6D184770B586B0D3
:105570000023CDF806308DF80A300389ADF81030DD
:1055800040F201234FF48974ADF8123040F2031356
:1055900090F820134268ADF80440ADF814300224AE
:1055A00000F10A038DF807408DF80B10039201AC4F
:1055B00005AE1D46224603CAB24218605960144621
:1055C00003F10803F6D112881A80284606B070BD90
:1055D000004870478831020000487047C03102001F
:1055E000004870478C31020000487047D2310200F9
:1055F00000487047B831020000487047A2310200ED
:10560000036810B504465B6F9847D4F8EC02036852
:105610001B6F9847236820469B6FBDE810401847D2
:1056200008B5D0F834332BB90349044840F2CD62B1
:1056300002F024F908BD00BFCD2E0200DB2E0200CF
:1056400010B5044602F0CAF9D4F834330133C4F873
:1056500034332BB9034904484FF4D76202F00EF9F2
:1056600010BD00BFCD2E0200DB2E020038B5D0F8F1
:105670003433012B044610D10025D4E9C93000F0A1
:10568000010203B94AB14110C4E9C95504EB6000F5
:105690000AB16258D3589847EFE7D4F834332BB99E
:1056A0000649074840F2C66202F0E8F8013BC4F838
:1056B0003433BDE8384002F0A7B900BFCD2E020058
:1056C000DB2E020007B500230249034800931A4667
:1056D00002F0F6FAE72E02000E01158007B500234E
:1056E0000249034800931A4602F0EAFA0F2F02001B
:1056F00004011580036873B50446DB6F9847B4F85E
:10570000F8120B12022B25D0032B56D0012B04D1FB
:10571000236820461B6B984708B9002018E02368CF
:1057200020461B6B98470678122EF6D12368204638
:105730001B6B98474578012DEFD12368C4F80463AB
:105740001B6B2046984784F80853C4F8000328468A
:1057500002B070BD2368C9B25B6B019120469847C7
:105760000028DAD0236801995B6B204698470378BC
:105770000199092BD1D1236820465B6B9847437868
:105780000199022BC9D1236820465B6B9847236897
:1057900085785B6B019920469847C378019945EA63
:1057A00003252368C4F804535B6B20469847C4F86C
:1057B0000003012084F80803CAE7C9B20529ACD860
:1057C000DFE801F0030F19232D37236820469B6B78
:1057D00098470378C4F8043323689B6B20469847A6
:1057E000E5E723682046DB6B98470378C4F8043369
:1057F0002368DB6BF2E7236820461B6C984703782D
:10580000C4F8043323681B6CE8E7236820465B6C0C
:1058100098470378C4F8043323685B6CDEE7236899
:1058200020469B6C98470378C4F8043323689B6C2C
:10583000D4E723682046DB6C98470378C4F8043328
:105840002368DB6CCAE70B78DB0913700B78C3F3B2
:10585000411353700B7803F01F0393704B78D37090
:10586000C8788B7843EA0023938048790B7943EA20
:105870000023D380C8798B7943EA002313817047D2
:10588000036870B504465B6F0D46984794F80C3377
:10589000022B05D009490A4840F23D1201F0EEFF03
:1058A000084BC4F824330023C4F82833236884F851
:1058B000105320469B6FBDE870401847CD2E020064
:1058C0002E2F0200875D010038B503680446DB6FA8
:1058D000984794F8083313B10025284638BDD4F80A
:1058E000EC0203685B6C9847D4F804239042F3D829
:1058F000D4F80013121A0144C4F80013C4F80423A6
:10590000A2B994F80A53022384F80C3345B12368F2
:1059100084F80A239B6E04F53D7120469847DCE726
:1059200001212046FFF7ACFF0125D6E7D4F8EC02B1
:10593000D4F820430368A2421B6C28BF2246984734
:10594000F2E70000036813B50446DB6F984794F84C
:105950001C33012B06D800230F4900931A460F4829
:1059600002F0AEF994F80C3323B100230C490093F4
:105970001A46F4E794F80B33032B0BD02046FFF7BD
:10598000A3FF38B9D4F8EC020368DB6C02B0BDE8C1
:105990001040184702B010BDE72E02000E0115801E
:1059A000592F020038B503680446DB6F984794F816
:1059B0000833012B3BD1D4F8045335B994F809339B
:1059C0000BB901252CE084F80953D4F82023D4F82E
:1059D000EC02D4F800130368954228BF15462A4606
:1059E0009B6C9847D4F80033D4F804232B44551B00
:1059F000C4F80033C4F80453002DE2D194F809230D
:105A0000002ADED194F80A53022384F80C334DB1F6
:105A1000236884F80A239B6E04F53D71204698475D
:105A2000284638BD01212046FFF72AFFC9E7002597
:105A3000F6E7036810B50446DB6F984794F81C330B
:105A4000012B01D8FFF73EFE94F80B33032B0AD04D
:105A50002046FFF7A7FF30B9D4F8EC020368BDE891
:105A60001040DB6C184710BD036870B504465B6FCF
:105A70000D46984794F80C33032B05D009490A4882
:105A80004FF4C37201F0FAFE084BC4F8243300232C
:105A9000C4F82833236884F8105320469B6FBDE870
:105AA00070401847CD2E0200A32F02009F66010010
:105AB00010B503680446DB6F9847012004F21D33DC
:105AC000C4F80033C4F8040384F8080310BD036865
:105AD00010B50446DB6F984794F81C33042B01BFC4
